{
  "_format": "hh-sol-artifact-1",
  "contractName": "Logger",
  "sourceName": "contracts/Logger.sol",
  "abi": [
    {
      "anonymous": false,
      "inputs": [
        {
          "indexed": false,
          "internalType": "string",
          "name": "message",
          "type": "string"
        }
      ],
      "name": "LogMessage",
      "type": "event"
    },
    {
      "inputs": [
        {
          "internalType": "string",
          "name": "message",
          "type": "string"
        }
      ],
      "name": "log",
      "outputs": [],
      "stateMutability": "nonpayable",
      "type": "function"
    }
  ],
  "bytecode": "0x6080604052348015600f57600080fd5b506101fd8061001f6000396000f3fe608060405234801561001057600080fd5b506004361061002b5760003560e01c806341304fac14610030575b600080fd5b61004a600480360381019061004591906100f8565b61004c565b005b7f96561394bac381230de4649200e8831afcab1f451881bbade9ef209f6dd30480828260405161007d9291906101a3565b60405180910390a15050565b600080fd5b600080fd5b600080fd5b600080fd5b600080fd5b60008083601f8401126100b8576100b7610093565b5b8235905067ffffffffffffffff8111156100d5576100d4610098565b5b6020830191508360018202830111156100f1576100f061009d565b5b9250929050565b6000806020838503121561010f5761010e610089565b5b600083013567ffffffffffffffff81111561012d5761012c61008e565b5b610139858286016100a2565b92509250509250929050565b600082825260208201905092915050565b82818337600083830152505050565b6000601f19601f8301169050919050565b60006101828385610145565b935061018f838584610156565b61019883610165565b840190509392505050565b600060208201905081810360008301526101be818486610176565b9050939250505056fea2646970667358221220523607f8e8c5201733a7dd7e3c3241dbeaca57033254c6f97e37bf90893629ea64736f6c634300081c0033",
  "linkReferences": {},
  "deployedLinkReferences": {}
}